:041800008FEF1BF05B
:08180800046ED8CF05F0E0CF1B
:1018100006F00001E9CF0CF0EACF07F0E1CF08F0C5
:10182000E2CF09F0D9CF0AF0DACF0BF0F3CF12F004
:10183000F4CF13F0FACF14F0F5CF15F0F6CF16F081
:10184000F7CF17F000C00EF001C00FF002C010F08B
:1018500003C011F0F2AA30EF0CF0F2B408EF12F06E
:10186000A0AA36EF0CF0A1BA88EF11F00EC000F07C
:101870000FC001F010C002F011C003F00CC0E9FF6E
:1018800007C0EAFF078E08C0E1FF09C0E2FF0AC0F7
:10189000D9FF0BC0DAFF12C0F3FF13C0F4FF14C06E
:1018A000FAFF15C0F5FF16C0F6FF17C0F7FF04508A
:1018B00006C0E0FF05C0D8FF1000F76ACA0FF66E39
:1018C000180EF7220900F55012000002FFFFFFFF7B
:1018D000FFFFFFFFFFFFFFFFFFFFF76AEA0FF66E54
:1018E000180EF7220900F550120040000300000016
:1018F00000000000000000000000000000000000E8
:1019000000000000000000000000F76A1A0FF66EE9
:10191000190EF7220900F5501200400014000000D3
:1019200000000000000000000000000000000000B7
:1019300000000000000000000000F76A4A0FF66E89
:10194000190EF7220900F5501200090220000101CA
:101950000080320904000002FFFFFF00070581023A
:1019600003000107050102140001F76A7A0FF66E01
:10197000190EF7220900F55012000100F76A8C0FCA
:10198000F66E190EF7220900F5501200120110012F
:1019900000000040D8041100000101020001F76AB4
:1019A000AE0FF66E190EF7220900F5501200000472
:1019B0000C00F76AC20FF66E190EF7220900F550F7
:1019C00012000403090408034300430053001803F2
:1019D00033004400200052004500500045005400F0
:1019E000200050004C006D92699468A402D0689465
:1019F000FCD794EF11F0400E0401016F040E036F49
:101A0000100E026F880E006F046B040E076F500EED
:101A1000066F0001120070A002D0EDDF7090689A8E
:101A20009DEF11F06A6A6892A3EF11F0EC91EBBFA1
:101A3000EC81EB9FEB51100803E2000E016E16D013
:101A4000ECA10BD0036AEB5138DFFF0802E1000E76
:101A500001D0010E016E0AD009D0036AEB512DDFCF
:101A6000FF0802E1000E01D0010E016E1200036AB0
:101A7000EA51700FE96E0F0E0320EA6EEF6AEAC0BA
:101A8000EBF0D4DF015218E0EA51080DF350EC6B93
:101A9000E96E040EEC25EA6EEF6AEA51080DF35088
:101AA000EC6BEB6F040EEB27000EEC23EBC0E9FFB1
:101AB000040EEC25EA6EEF6A1200010EE96FE9519F
:101AC0000F0805E3E9C0EAF0D2DFE92BF8D71200EE
:101AD000256A246ADF6BDF530AE1036ADF51260FB0
:101AE000E96E000E0320EA6EEF6ADF2BF4D71B6A63
:101AF000010E1C6E1A6A1200689612006A6A686A01
:101B00009F0E6B6E3D0E696E6E6AD7DFE1DF160EBB
:101B1000706E68A602D0F0DFFCD76D986CDF030E04
:101B20001F6EA9EF11F0698468986D82AFEF11F014
:101B3000689CB5EF11F0E4C020F01200206812009C
:101B4000E26B245025102DE0E2513F082AE31D509E
:101B500005E0020A09E0010A0DE011D023C003F0FC
:101B60002250EBDEE36F0BD023C003F0225021DFC5
:101B7000E36F05D023C003F0225000DFE36F222A79
:101B8000D8B4232A2450D8B425062406E251E22BE7
:101B9000036A500FE96E040E0320EA6EE3C0EFFF04
:101BA000D0D72450251004E1E251400801E01A6A20
:101BB000E2C0E4F0C0DF1200236A226A1D6A040159
:101BC0001351010A000105E0030A09E0010A0BE0D4
:101BD0001ED0256A120E246E030E1D6E1AD0256AC1
:101BE000200E246E16D0020E1D6E036A04011251DF
:101BF0000001D5DE036A226E03C023F023C003F088
:101C00002250D7DE036A246E03C025F002D096DF8F
:101C10000FD00401175308E1255203E12450165D4B
:101C200003E2256A16C424F0010E1A6E000188DF53
:101C300023EF0FF0E15304E1040E1F6E3EDFB1D03D
:101C4000050E1F6E040EE46F900EE36F010EE26F3F
:101C5000E2510F08D8A0A5D0E2C0EAF008DFE56B9A
:101C6000036AE2512ADEFF084DE0040EE56FD890CA
:101C7000E235036A4ADE0900F5CF03F0E66F03C0E0
:101C8000E7F0E251080DF350EA6BE96F010EE92528
:101C9000016E000EEA21036E01C0E9FF040E032469
:101CA000EA6EE6C0EFFFE251080DF350EA6BE96F10
:101CB000020EE925016E000EEA21036E01C0E9FF64
:101CC000040E0324EA6EE4C0ECFFED52E3C0EFFF24
:101CD000D890E235036A19DE0900F5CF03F0E32757
:101CE0000350E423880EE86FE7B1E881E7B3E883A7
:101CF000E251080DF350EA6BE96E040EEA25EA6E34
:101D0000E8C0EFFF036AE251D8DDFF0834E0E58365
:101D1000E251080DF350EA6BE96F040EE927000E5B
:101D2000EA23020EE925016E000EEA21036E01C0CE
:101D3000E9FF040E0324EA6EE4C0ECFFED52E3C0B9
:101D4000EFFFD890E235036AC8DD0900F5CF03F054
:101D5000E3270350E423E251080DF350EA6BE96FE7
:101D6000040EE927000EEA23E9C0E9FF040EEA2584
:101D7000EA6E400EEF6EE551060802E10E0EE56FC9
:101D8000036AE2519ADD0108D8A4E589036AE251A9
:101D9000700FE96E0F0E0320EA6EE5C0EFFFE22B35
:101DA00057D71EEF0FF004011151000A00010DE09A
:101DB000010A14E0020A1EE0060A27E0030A2CE0EA
:101DC0000E0A2CE0010A30E03DD01CC050F40401A2
:101DD000516B020E0001E46FAEDE35D00401122D0E
:101DE00006D0010E1C160001E46BA5DE02D0000136
:101DF000A5DE29D00401122D05D01C820001E46B60
:101E00009ADE02D000019ADE1ED0020E1A6E12C4B3
:101E100021F0E46B90DE17D0CFD615D01BC050F464
:101E2000010EE46F88DE0FD004011251010808E3AF
:101E300012C41BF012C4E1F00001FCD6E46B7BDE9F
:101E4000000101D07BDE1DEF10F01BC0E1F00401AA
:101E50001151000A000105E00A0A0BE0010A26E020
:101E600037D00401506B516B020E0001E46F63DE4A
:101E700030D0E15319E0010EE15D036A76DD016EB9
:101E80000401145DD8A002D000010ED0036A1451E1
:101E9000260FE96E000E0320EA6EEFCF50F4010E1C
:101EA0000001E46F48DE01D049DE13D0E1530EE0BB
:101EB000036A04011451260FE96E000E0320EA6E36
:101EC00012C4EFFF0001E46B36DE01D037DE01D033
:101ED00035DE1DEF10F0E291E1BFE281E19FE2A16A
:101EE00011D0E151080DF350E46BE36F040EE327CA
:101EF000000EE423E3C0E9FF040EE425EA6E880E39
:101F0000EF6E09D0E151080DF350E46BE96E040E59
:101F1000E425EA6EEF6AEDEF0FF0E291E1BFE281B6
:101F2000E19FE2A111D0E151080DF350E46BE36FA2
:101F3000040EE327000EE423E3C0E9FF040EE425CA
:101F4000EA6E840EEF6E0AD0E151080DF350E46B97
:101F5000E96E040EE425EA6E840EEF6EF3EF0FF0E7
:101F6000E291E1BFE281E19FE2A111D0E151080DD0
:101F7000F350E56BE46F040EE427000EE523E4C0A4
:101F8000E9FF040EE525EA6EEFCFE3F00AD0E15158
:101F9000080DF350E56BE96E040EE525EA6EEFCF10
:101FA000E3F0E3AF02D0E3B502D0000E01D0010EA2
:101FB000016EFDEF0FF014C4EBF038DD015228E0A4
:101FC00004011151010A000105E0020A09E0030AB7
:101FD0000DE01DD014C4E1F07ED7E46BACDD18D069
:101FE00014C4E1F09AD7E46BA6DD12D00401506B63
:101FF000516B14C4E1F00001B3D7015204E0010EAB
:102000000401506F0001020EE46F95DD01D096DDF2
:102010001DEF10F01A6A040110517F0B000A000135
:1020200005E0010A05E0030A05E006D0BCD605D0AC
:102030000CD703D0C0D701D081DD3EEF11F0E151C4
:10204000080DF350E76BE96E040EE725EA6EEFCF5B
:10205000E3F0E251020806E1E3AD02D0E26B02D008
:10206000010EE26FE251030813E1840EE36FE151C8
:10207000080DF350E76BE66F040EE627000EE7232A
:10208000E6C0E9FF040EE725EA6E840EEF6E07D086
:10209000E22D03D0C80EE36F02D0880EE36FD89014
:1020A000E135036A32DC0900F5CF03F0E46F03C0C9
:1020B000E5F0E151080DF350E76BE66F010EE62500
:1020C000016E000EE721036E01C0E9FF040E032438
:1020D000EA6EE4C0EFFFE5B1E381E5B3E383E151EC
:1020E000080DF350E76BE96E040EE725EA6EE3C0D6
:1020F000EFFF1200036AE651700FE96E0F0E032026
:10210000EA6EEF5212E0E651080DF350E86BE76F0C
:10211000040EE727000EE823E7C0E9FF040EE825D8
:10212000EA6EEFCFE9F0E9AF02D0000E01D0010E68
:10213000016E1200E1C0E6F0DDDF015261E0E15125
:10214000080DF350E76BE66F040EE627000EE72359
:10215000010EE625016E000EE721036E01C0E9FFC6
:10216000040E0324EA6EE2C0EFFFE451020817E117
:10217000E151080DF350E76BE66F040EE627000E01
:10218000E723E6C0E9FF040EE725EA6EEFCFE5F0AE
:10219000E5AD02D0E46B02D0010EE46F13D0E45140
:1021A000040810E1E151080DF350E76BE96E040EED
:1021B000E725EA6EEFCFE5F0E5AD03D0010EE46F61
:1021C00001D0E46BE42D03D0C80EE56F02D0880E79
:1021D000E56FE3B1E581E3B3E583E151080DF35029
:1021E000E76BE66F040EE627000EE723E6C0E9FF83
:1021F000040EE725EA6EE5C0EFFF010E016E02D086
:10220000000E016E1200E15300E11200E2C06EFF09
:10221000E25303E0040E1F6E02D0020E1F6E16EF93
:1022200011F01B6A1A6A21C0E2F0F0D722EF11F018
:10223000E15308E11A2C02D083DC04D01A500208C2
:1022400001E1EFD712001E30DF6FDF33DF331F0EE7
:10225000DF171E5241E1040100513C0B0001E06F09
:10226000430E040100170001E05134081EE104018F
:102270000451800B01E0046B0001CCD66D98203C2A
:1022800005D0E16B030EE26FDADE0ED0E16B020ED9
:10229000E26FD5DE2050FE0807E0E16BE36B20C063
:1022A000E2F0040EE46F46DF16D0E051040813E1BB
:1022B000E16BA9DFE16B020EE26FC1DE2050FE0888
:1022C0000AE0203C01D007D0E16BE36B20C0E2F0D4
:1022D000010EE46F2FDF1AD01E5004080EE12068B3
:1022E000E16BA6DF203C01D007D0E16BE36B20C09F
:1022F000E2F0020EE46F1EDF09D01EB404D0DFC08E
:10230000E1F081DF03D0DFC0E1F092DFBFEF11F039
:10231000A19A1F5201E139D0685237E068A404D075
:1023200069A402D0F3EF0CF06DA201D02ED068AA00
:1023300004D069AA02D00BEF0DF068A204D069A204
:1023400002D012EF0DF068A004D069A002D07EEF99
:102350000DF068A804D069A802D093EF0DF068AC26
:1023600004D069AC02D098EF0DF0DE6B68A608D0FF
:1023700069A606D06CCF1EF07CEC0DF064D701D0BE
:1023800004D0DE51DE2B0308F1E236EF0CF02DA86D
:1023900007D0302AD8B4312A3050311001E12D98BD
:1023A00032A807D0352AD8B4362A3550361001E184
:1023B000329837A807D03A2AD8B43B2A3A503B1073
:1023C00001E137983CA807D03F2AD8B4402A3F50B3
:1023D000401001E13C9841A807D0442AD8B4452ACE
:1023E0004450451001E1419846A807D0492AD8B485
:1023F0004A2A49504A1001E146984BA807D04E2A74
:10240000D8B44F2A4E504F1001E14B9809EF12F00B
:10241000BED7E80ED76E8F0ED66EF29436EF0CF064
:10242000CA51D8B471D0006ECE51D8B46DD0002648
:1024300004E3810E002668E204D07F0E005E64E3B0
:1024400063E0CBC0D2F0CF51D21BCB8FCF8FCD5119
:10245000D103F4CFD4F0CC51D003F4CF03F0F3CFB9
:10246000D3F0D103F350D427F450D323000E03222A
:10247000CD51D003F350D427F450D323000E026A79
:1024800003220222CB51D103F350D327F45003226D
:10249000000E0222CB51D003F3500326F450022247
:1024A000000E016A0122CD51CF03F350D327F4501F
:1024B0000322000E02220122CC51CF03F350032647
:1024C000F4500222000E0122CB51CF03F35002261A
:1024D000F4500122002A01BE05D0D337033602365C
:1024E00001360006000ED3AF0AD0032A02220122D1
:1024F000015005E1025003E1035001E1002AD2BF7F
:10250000018ED2AF019E04D0006A016A026A036A9A
:102510001200CE51D8B4A5D0DA6FD251D8B4A1D020
:10252000DA5F05E37F0EDA27D8B09BD006D0810EA4
:10253000DA5FD8A096D0D8B494D0DAC000F0016A9F
:10254000026A036AD96BCFC0D8F0D88FD0C0D7F059
:10255000D1C0D6F0190EDA6FD551D65F0DE2010E5B
:10256000D75F0AE2D85F08E2D95F06E2D92BD82B01
:10257000D72BD551D62728D0D451D75F12E2010EE0
:10258000D85F0FE2D95F0DE2D92BD82BD451D727D2
:10259000D551D62719E3D72B17E1D82B15E1D92B25
:1025A00013D0D3518009D85F0EE2010ED95F0BE240
:1025B000D92BD3518009D827D451D727E9E3D82B79
:1025C000E7E1D92BE5D70380DA2F01D00BD0D890E3
:1025D000D637D737D837D937D890033602360136B1
:1025E000DB37BAD7DBA106D0D890013202320332F2
:1025F000DB3302D0000635E0DBBF1ED0D890D637E3
:10260000D737D837D937D551D65F07E2010ED75F14
:1026100004E2D85F02E2D95F1AE3D451D75F05E242
:10262000010ED85F02E2D95F12E3D3518009D85F6F
:1026300003E2010ED95F0BE3032A09E1022A07E155
:10264000012A05E1002A0DE0013202320332CFC037
:10265000DAF0D351DA1BDAAF02D0018E06D0019E38
:1026600004D0006A016A026A036A12006D6A696A2C
:10267000080E6F6E94503009946E1F6A196AF2BE8C
:10268000198EF29E68EC0DF019BEF28E49EF13F030
:10269000EDD76EEF13F0196AF2BE198EF29E68EC58
:1026A0000DF019BEF28E6D6A140E6F6E696A6D863A
:1026B000010E1F6E5FEF13F06DB601D0ECD71F2C2B
:1026C0000BD06DBA09D0686A696AA08AC00EF2128E
:1026D000110E696E020E1F6E1200DAD7EDDF1F5069
:1026E0000208FCE143EF14F01B5202E10400FCD7A6
:1026F00045EF14F0EA6ACA0EE96EEF500EE00F0ED5
:10270000016E006A002EFED7012EFBD78F0E006EE1
:10271000002EFED70000EF2EF2D748EF14F06E6BBC
:102720006D6B6EC06CF06DC06BF06CC06AF06BC00E
:1027300069F06AC068F069C067F0746B74C073F0C8
:10274000726B73C071F072C070F071C06FF0C96BC2
:10275000C86B030EC76FC669BD6BBC6BBB6BBA6B36
:10276000B16BB06BAF6BAE6BC56BC46BC36BC26B45
:10277000896B886B876B820E866F856B846B836B2E
:10278000826FFB0E8D6FCB0E8C6F6E0E8B6F790E82
:102790008A6F9D6B9C6B200E9B6F810E9A6F85C01C
:1027A00091F084C090F083C08FF082C08EF08DC015
:1027B000CDF08CC0CCF08BC0CBF08AC0CAF09DC0ED
:1027C000D1F09CC0D0F09BC0CFF09AC0CEF028DEF4
:1027D00000C0CAF001C0CBF002C0CCF003C0CDF005
:1027E00003C0D1F002C0D0F001C0CFF000C0CEF0E5
:1027F000D56BD46BD36B800ED26F8BDE03C095F09C
:1028000002C094F001C093F000C092F089C0D1F0F2
:1028100088C0D0F087C0CFF086C0CEF09DC0D5F084
:102820009CC0D4F09BC0D3F09AC0D2F072DE03C03B
:1028300099F002C098F001C097F000C096F0000E29
:102840000609CA6EF90ECB6E94948B940C0EBD6E75
:10285000B76AB66ABE6AC150C00B0E09C16EC050DD
:10286000C00B0709C06EC08EC280000E016EC25040
:10287000C30B0110C26E880ED56EE80ED76E8F0E98
:10288000D66EF28A2AD718DF2FD7320ECA6F32D708
:102890009CEF1BF02B50CA6F2CC0CBF0020ECA2746
:1028A000000ECB23010ECA27000ECB23010ECA5DFA
:1028B000E96E000ECB59EA6EFECFEDFFFDCFEDFFC6
:1028C0002A86060012000600B5EF14F006002790D5
:1028D0002BC0CAF02CC0CBF0020ECA27000ECB23AF
:1028E000010ECA27000ECB23010ECA5DE96E000E51
:1028F000CB59EA6EFECFEDFFFDCFEDFF2A962AA859
:102900002A9A28B02A8A06001200286ADFDF1200FD
:102910002868DCDFB7EF14F0279A2BC0E9FF2CC042
:10292000EAFFCB5303E02A98EF9807D02AB804D0E7
:102930002AAA02D0278A01D0060012002B50E96E85
:102940002CC0EAFFEECF2AF0EECFE8FFEECFFAFF81
:10295000F96E1200CB6B270EE96ECBC0EAFFEF6A6F
:10296000286A28A007D096DFAED7CFDFD1D7CB6BB0
:10297000D3DFE4DFCB6B2D0ECA6F1E0ECA25016EAE
:10298000000ECB2101C02BF02C6E2D9C329C379C6D
:102990003C9C419C469C4B9C9EEF1BF01B50016E47
:1029A00008EF16F0036ACA51700FE96E0F0E03208C
:1029B000EA6EEF520DE0CA51080DF350CC6BCB6FAD
:1029C000E96E040ECC25EA6EEFCFCDF0CDAF02D08C
:1029D000000E01D0010E016E0EEF16F0CF51080D62
:1029E000F350DA6BD96F020ED925016E000EDA2191
:1029F000036E01C0E9FF040E0324EA6EECCFD5F0AC
:102A0000ED52EFCFD4F0CF51080DF350DA6BD96F00
:102A1000010ED925016E000EDA21036E01C0E9FF17
:102A2000040E0324EA6ED86BEFCFD7F0CF51080D18
:102A3000F350DA6BE96E040EDA25EA6EEFCFD6F0CA
:102A4000D6B1D881D6B3D883D851D35D08E303E19A
:102A5000D251D75D04E2D8C0D3F0D7C0D2F0D1C0F4
:102A6000EAFFD0C0E9FFD5C0E2FFD4C0E1FFD3C088
:102A700002F0D2C001F0015202E0022A02D002525A
:102A800006E0E6CFEEFF012EFCD7022EFAD7D2C029
:102A900001F0D3C002F058EF15F0CAC0CFF0CCC09F
:102AA000D1F0CBC0D0F0CEC0D3F0CDC0D2F096D70D
:102AB00002C0CEF001C0CDF0196AF2BE198EF29EAE
:102AC000CAC0E1F0020EE26F1FEC10F019BEF28EE8
:102AD000CDC001F0CEC002F01AEF16F0CA51CC03FF
:102AE000F3CF01F0F4CF00F0CD03F3500026CB512B
:102AF000CC03F3500020026E1200C282C2B2FED795
:102B0000C3CF7EF0C4CF7FF07FC064F07EC065F09D
:102B100096EF16F0196AF2BE198EF29ECAC0E6F060
:102B20007AEC10F019BEF28E015243E0CA51080D42
:102B3000F350D36BD26F040ED227000ED323020EB4
:102B4000D225016E000ED321036E01C0E9FF040EF1
:102B50000324EA6EECCFD1F0ED52EFCFD0F0D1C02C
:102B6000EAFFD0C0E9FFCCC0E2FFCBC0E1FFCEC09E
:102B700002F0CDC001F0015202E0022A02D002525E
:102B800006E0E6CFEEFF012EFCD7022EFAD7196A37
:102B9000F2BE198EF29ECAC0E1F0CEC0E3F0CDC005
:102BA000E2F0CFC0E4F09AEC10F019BEF28E0150C2
:102BB00002D0000E016EBAEF16F02A9A2A982BC0A6
:102BC000E9FF2CC0EAFF2AC0EFFFCA51CB111EE07B
:102BD000CA51FF0A006ECB51FF0A00C0CAF0CB6F8A
:102BE000CA2BD8B4CB2B030E2B24E96E000E2C205D
:102BF000EA6ECBC0ECFFED52CAC0EFFF2A882A86EE
:102C00002BC0E9FF2CC0EAFF2AC0EFFF1200C6D696
:102C10000152D8B4AFD0010ECA6FC4D60152D8B495
:102C200084D0010ECA6FCC6B500ECB6FCE6B140EDE
:102C3000CD6F33D7CB6B50C0CAF0010ECD6FCC6BCC
:102C40004DDF02C0CBF001C0CAF05150CA27000EC0
:102C5000CB23D890CA35676FCB35686FCB6B52C02A
:102C6000CAF0010ECD6FCC6B39DF02C0CBF001C0D2
:102C7000CAF05350CA27000ECB23D890CA35696FCB
:102C8000CB356A6FCB6B54C0CAF0010ECD6FCC6BE5
:102C900025DF02C0CBF001C0CAF05550CA27000E94
:102CA000CB23D890CA356B6FCB356C6FCB6B56C0CE
:102CB000CAF0010ECD6FCC6B11DF02C0CBF001C0AA
:102CC000CAF05750CA27000ECB23D890CA356D6F73
:102CD000CB356E6FCB6B58C0CAF0010ECD6FCC6B8D
:102CE000FDDE595001246F6F000E0220706FCB6B18
:102CF0005AC0CAF0010ECD6FCC6BF0DE5B500124E0
:102D0000716F000E0220726F5CC073F05DC074F0D2
:102D10005EC075F05FC076F060C077F061C078F09B
:102D200062C079F07B6B63C07AF0E7D667516811B7
:102D30000BE169516A1108E16B516C1105E16D51AC
:102D40006E1102E1000E01D0010E000A05E0010E35
:102D5000666F939C8A8C03D0666B939C8A9C010E51
:102D6000CA6FCC6B640ECB6FCE6B030ECD6F020EB1
:102D7000CF6FD0D6CB6B0A0ECA6F1FDF8BDD000082
:102D800089DD000044D7A1EF1BF08E0E006ECBC092
:102D900001F0CAC002F0036A015209E102C001F069
:102DA000026A080E005E015202E1006A08D0D89063
:102DB00001BE04D0023601360006F9D7019E12008A
:102DC0008E0E006ECA51005ECBC002F0CCC001F086
:102DD000028E005209E0D890025202E1015204E052
:102DE00002320132002EF7D7CBAF05D0011E021EF2
:102DF000012AD8B4022A120088DD000079510308A4
:102E000002E0000E01D0010E000A02E1000E01D026
:102E1000010ECA6FCB6F80DD939E8A7E7BC0CBF0A4
:102E20007AC0CAF0B2DF03C0CDF002C0CCF001C05E
:102E3000CBF000C0CAF04E0ED16F620ED06FCF6BD8
:102E4000810ECE6F10EC12F003C0A1F002C0A0F012
:102E500001C09FF000C09EF0A1C0CDF0A0C0CCF09A
:102E60009FC0CBF09EC0CAF0ABDF02C081F001C0B2
:102E700080F081C002F080C001F0023201320232E3
:102E80000132023201C0BEFF02320230300B006E4E
:102E9000BD50CF0B0010BD6E030ECB6FE80ECA6F96
:102EA0008CDEF8DC0000F6DC0000A6D7A4EF1BF0F7
:102EB000800ED8B2D31BD86BD96BCFC0D7F0D3510B
:102EC000D71BCE51D8B4DCD0D66F006ED251D8B457
:102ED000E0D0D65FD8B481D03DE3D3C0DCF0DC8F46
:102EE000D4C0DBF0D5C0DAF0D96BD890DC33DB335B
:102EF000DA33D933D62FF8D7D7AF03D0D881DDD086
:102F0000D891D691D889EA6AD10EE96EE9D0D899DC
:102F1000D7BF0AD0D6A113D0DC33DB33DA33D933B1
:102F2000002AD8B4C5D00BD0DCBF0CD0D890D9378C
:102F3000DA37DB37DC370006D8B4BAD0F5D7D88D0E
:102F40006BD0D89DCFC0D7F0CFAF02D0DC8FA9D047
:102F5000DC9FA7D0D2C0D6F0D2C000F0CE51D65F51
:102F6000CFC0DCF0DC8FD0C0DBF0D1C0DAF0D96BA1
:102F7000D890DC33DB33DA33D933D62FF8D7D7AF59
:102F800003D0D8839AD0D893D691D88BEA6AD50E3D
:102F9000E96EA6D0D89BD7BF0AD0D6A113D0DC3318
:102FA000DB33DA33D933002AD8B482D00BD0DCBF7C
:102FB0000CD0D890D937DA37DB37DC370006D8B4F5
:102FC00077D0F5D7D88F28D0D89FD3C0D7F0D3AF3C
:102FD00002D0DC8F66D0DC9F64D0D3C0DCF0DC8F05
:102FE000D4C0DBF0D5C0DAF0D7AF04D0DC9FD885F1
:102FF00064D0D895D96BD691EA6AD10EE96E70D0BB
:10300000D7BF1CD0CFC0D7F0D6A106D0DC33DB337E
:10301000DA33D933002A4CE0D9AF0BD0DA2B09E1EF
:10302000DB2B07E1DC2B05E1DC33DB33DA33002A71
:103030003FE0D8BD86D7D8BFC7D71CD0800EDC1BD9
:10304000DCAF04D03AD0D3C0D7F00AD0CFC0D7F08D
:10305000DC5306E1DB5304E1DA5302E1006A21D0DC
:10306000DCBF08D0D890D937DA37DB37DC37002E11
:10307000F7D71ED0D7AF02D0DC8F13D0DC9F11D092
:10308000D2C000F0D3C0DCF0D4C0DBF0D5C0DAF0A1
:1030900008D0CEC000F0CFC0DCF0D0C0DBF0D1C093
:1030A000DAF0DCC001F0DBC002F0DAC003F034D0AB
:1030B000006A016A026A036A2FD0D96BDA1FDB1F2C
:1030C000DC1FD91FD92B05E1DA2B03E1DB2B01E152
:1030D000DC2BD8B115D7D8B356D7D8B58AD7B3D744
:1030E000EF50DA2705E3DB2B03E1DC2BD8B4D681E4
:1030F000ED52EF50DB2703E3DC2BD8B4D681ED5241
:10310000EF50EFBE01D0800ADC27D8B0D681D8B905
:10311000FED6D8BB3FD774D71200CBC0D2F0CF5168
:10312000D21BD2AF05D0D894D890CBBFD8802FD0A7
:10313000CBC0D2F0CEC0D3F0CA51D35F06E0D2AF3D
:1031400026D0D850010AD86E22D0CFC0D3F0CB51B0
:10315000D35F06E0D2AF1BD0D850010AD86E17D08B
:10316000D0C0D3F0CC51D35F06E0D2AF10D0D8504E
:10317000010AD86E0CD0D1C0D3F0CD51D35F06E098
:10318000D2AF05D0D850010AD86E01D0D890120025
:1031900085EC14F000007951020802E0000E01D025
:1031A000010E000A02E1000E01D0010ECA6FCB6FC2
:1031B0008CEC14F0939E8A7EC2B2FED7C3CF7CF013
:1031C000C4CF7DF07DC0CBF07CC0CAF0DEDD03C093
:1031D000A5F002C0A4F001C0A3F000C0A2F07BC023
:1031E000CBF07AC0CAF0D1DD03C0CDF002C0CCF084
:1031F00001C0CBF000C0CAF04E0ED16F620ED06F8E
:10320000CF6B810ECE6F10EC12F003C0A1F002C0A4
:10321000A0F001C09FF000C09EF0D882A1C0D1F004
:10322000A0C0D0F09FC0CFF09EC0CEF0A5C0D5F01A
:10323000A4C0D4F0A3C0D3F0A2C0D2F039DE03C042
:10324000ADF002C0ACF001C0ABF000C0AAF091C07C
:10325000CDF090C0CCF08FC0CBF08EC0CAF0ADC026
:10326000D1F0ACC0D0F0ABC0CFF0AAC0CEF010EC23
:1032700012F003C0B5F002C0B4F001C0B3F000C05A
:10328000B2F0D892ADC0D1F0ACC0D0F0ABC0CFF0AE
:10329000AAC0CEF0B1C0D5F0B0C0D4F0AFC0D3F06A
:1032A000AEC0D2F005DE95C0CDF094C0CCF093C096
:1032B000CBF092C0CAF003C0D1F002C0D0F001C080
:1032C000CFF000C0CEF010EC12F0D892BDC0D1F01B
:1032D000BCC0D0F0BBC0CFF0BAC0CEF003C0D5F0B8
:1032E00002C0D4F001C0D3F000C0D2F0E1DD03C0D1
:1032F000B9F002C0B8F001C0B7F000C0B6F0D88293
:10330000ADC0D1F0ACC0D0F0ABC0CFF0AAC0CEF011
:10331000B1C0D5F0B0C0D4F0AFC0D3F0AEC0D2F0E1
:10332000C7DD99C0CDF098C0CCF097C0CBF096C067
:10333000CAF003C0D1F002C0D0F001C0CFF000C08D
:10334000CEF010EC12F003C0C1F002C0C0F001C01A
:10335000BFF000C0BEF0D892B5C0D1F0B4C0D0F07C
:10336000B3C0CFF0B2C0CEF0B9C0D5F0B8C0D4F081
:10337000B7C0D3F0B6C0D2F09BDD00C0CAF001C028
:10338000CBF002C0CCF003C0CDF0D89203C0D1F096
:1033900002C0D0F001C0CFF000C0CEF0C1C0D5F067
:1033A000C0C0D4F0BFC0D3F0BEC0D2F081DD03C036
:1033B000A9F002C0A8F001C0A7F000C0A6F0C7C0E5
:1033C000CBF0C6C0CAF0E1DC03C0CDF002C0CCF047
:1033D00001C0CBF000C0CAF0A9C0D1F0A8C0D0F0A5
:1033E000A7C0CFF0A6C0CEF098DE0DE3C7C0CBF0EB
:1033F000C6C0CAF0CADC03C0A9F002C0A8F001C070
:10340000A7F000C0A6F0C9C0CBF0C8C0CAF0BDDCB0
:10341000A9C0CDF0A8C0CCF0A7C0CBF0A6C0CAF020
:1034200003C0D1F002C0D0F001C0CFF000C0CEF098
:1034300074DE0DE3C9C0CBF0C8C0CAF0A6DC03C07F
:10344000A9F002C0A8F001C0A7F000C0A6F0A9C072
:10345000CDF0A8C0CCF0A7C0CBF0A6C0CAF0B0DCBD
:1034600002C081F001C080F081C002F080C001F094
:103470000232013202320132023201C0BEFF023298
:103480000230300B006EBD50CF0B0010BD6EADC0D2
:10349000B1F0ACC0B0F0ABC0AFF0AAC0AEF0B9C0F4
:1034A000BDF0B8C0BCF0B7C0BBF0B6C0BAF0130EE8
:1034B000CB6F880ECA6FDDEC15F04AEC14F00000FB
:1034C0004AEC14F0000064D6A6EF1BF085EC14F073
:1034D0000000675304E1685302E1000E01D0010EC1
:1034E000000A02E1000E01D0010ECA6FCB6F8CEC16
:1034F00014F07551400802E195908C807551800858
:1035000002E195908C906751D8B46807672F02D07C
:10351000685303E095988C7802D095988C9870C089
:10352000CBF06FC0CAF0DDEC15F04AEC14F00000EF
:103530004AEC14F00000CAD7A8EF1BF085EC14F099
:103540000000695304E16A5302E1000E01D0010E4C
:10355000000A02E1000E01D0010ECA6FCB6F8CECA5
:1035600014F07651200802E195928C827651100871
:1035700002E195928C926951D8B46A07692F02D002
:103580006A5303E0959A8C7A02D0959A8C9A72C00D
:10359000CBF071C0CAF0DDEC15F04AEC14F000007D
:1035A0004AEC14F00000CAD7AAEF1BF085EC14F027
:1035B00000006B5304E16C5302E1000E01D0010ED8
:1035C000000A02E1000E01D0010ECA6FCB6F8CEC35
:1035D00014F07751080802E195948C84775104081F
:1035E00002E195948C946B51D8B46C076B2F02D088
:1035F0006C5303E0959C8C7C02D0959C8C9CCB6B8F
:1036000073C0CAF0DDEC15F04AEC14F000004AEC8F
:1036100014F00000CBD7ACEF1BF085EC14F00000E9
:103620006D5304E16E5302E1000E01D0010E000A59
:1036300002E1000E01D0010ECA6FCB6F8CEC14F0CA
:10364000782D02D095968C867851020802E19596E5
:103650008C966D51D8B46E076D2F02D06E5303E077
:10366000959E8C7E02D0959E8C9ECB6B74C0CAF0CA
:10367000DDEC15F04AEC14F000004AEC14F0000008
:10368000CCD7AEEF1BF02792D26B2D0ED2C0D0F06C
:10369000CF6F286ACFC0E9FFD0C0EAFFEFBC35D0BA
:1036A000D26BCC0EE96ED2C0EAFFEF8CD26BCC0E9F
:1036B000E96ED2C0EAFFEF86010ECF25E96E000E5B
:1036C000D021EA6ECEC0ECFFED52CDC0EFFF030E6D
:1036D000CF25E96E000ED021EA6EEC6AED52EF6A5A
:1036E000CFC0E9FFD0C0EAFFCCC0EFFF2B50CF5DC9
:1036F0000AE12C50D05D07E1D26B2A0EE96ED2C0F0
:10370000EAFFCCC0EFFF279209D0050ECF27D8B033
:10371000D02B282A28500608BDE227821200F86A1A
:10372000D09E078EEA6AE96AC150C00B0F09C16ECC
:10373000070EB46E8FEF13F0AAEF14F0F9B007EF95
:1037400016F0F9B0FCEF16F0F9B022D5F9B0BED6FC
:10375000F9B0F4D6F9B02AD7F9B05FD72C0E036EC2
:103760000E0ECA6F03C0CBF0CC6B03C0CEF0CD6F92
:103770008ADF2D0E036EF80ECA6F03C0CBF0CC6B40
:1037800003C0CEF0CD6F7FDF310E036E900ECA6F97
:1037900003C0CBF0CC6B03C0CEF0CD6F74DF340E22
:1037A000036ECC0ECA6F03C0CBF0CC6B03C0CEF05F
:1037B000CD6F69DF350E036E3C0ECA6F03C0CBF0D0
:1037C000CC6B03C0CEF0CD6F5EDF350E036EAC0E5A
:1037D000CA6F03C0CBF0CC6B03C0CEF0CD6F53DF0C
:1037E000360E036E1A0ECA6F03C0CBF0CC6B03C04B
:1037F000CEF0CD6F48DFF28ED0AE01D0F28C286AC9
:10380000CB6B2D0ECA6F1E0ECA25016E000ECB218A
:10381000036E03502C5C0BE303E101502B5C07E3C8
:10382000CB6B2D0ECA6FCBC02CF02B6E04D0050EC7
:103830002B26D8B02C2A2BC0E9FF2CC0EAFFEFCFF3
:103840002AF02AAC01D02ABE13D02AA802D02AAA74
:103850000FD09EEC14F02BC001F02CC003F02BC055
:10386000E9FF2CC0EAFFD70EEF162A50280BEF1203
:04387000C6D70300B4
:020000040030CA
:0E00000024CE3E1E0087A1000FC00FE00F406F
:00000001FF
;PIC18F4550
;CRC=65E9  CREATED="25-nov-14 20:33"
